{
    "transactions": [
        {
            "hash": "0x3e224a81e208feff31a92af3d1e5e4fa08625b5d6b3174ea4c33d89287075d10",
            "transactionType": "CALL",
            "contractName": null,
            "contractAddress": "0xe703b2ab81cb9733d55f489958bc68397172829c",
            "function": "setURI(uint256,string)",
            "arguments": [
                "3",
                "https://holiday.calypsohub.network/api/image/3.svg"
            ],
            "transaction": {
                "from": "0xdf300583a9e04b5285f0ba42496aeb70abdcd57f",
                "to": "0xe703b2ab81cb9733d55f489958bc68397172829c",
                "gas": "0xf198",
                "value": "0x0",
                "input": "0x862440e200000000000000000000000000000000000000000000000000000000000000030000000000000000000000000000000000000000000000000000000000000040000000000000000000000000000000000000000000000000000000000000003268747470733a2f2f686f6c696461792e63616c7970736f6875622e6e6574776f726b2f6170692f696d6167652f332e7376670000000000000000000000000000",
                "nonce": "0x6",
                "chainId": "0x5d456c62"
            },
            "additionalContracts": [],
            "isFixedGasLimit": false
        }
    ],
    "receipts": [
        {
            "status": "0x1",
            "cumulativeGasUsed": "0x2e04a",
            "logs": [
                {
                    "address": "0xe703b2ab81cb9733d55f489958bc68397172829c",
                    "topics": [
                        "0xf8e1a15aba9398e019f0b49df1a4fde98ee17ae345cb5f6b5e2c27f5033e8ce7"
                    ],
                    "data": "0x0000000000000000000000000000000000000000000000000000000000000003",
                    "blockHash": "0xbcd979286bc72a0e75bf3c4dd38be07ed82bf25ae5268dd2239dad697dc29b47",
                    "blockNumber": "0x124f87a",
                    "transactionHash": "0x3e224a81e208feff31a92af3d1e5e4fa08625b5d6b3174ea4c33d89287075d10",
                    "transactionIndex": "0x3",
                    "logIndex": "0x0",
                    "removed": false
                }
            ],
            "logsBloom": "0x00000000000000000000000000000000080000000000000000000000000000000000000000000000000000000000000000000000000000000000000000000000000000000000000000000000000000000000000000000000000000000000000000000000000000000000000000000000000000000000000000000000000000000000000000000000000000000000000000000000000000000000000000000000000000000000000000000000000000002200000000000000000000000000008000000000000000000000000000000000000000000000000000000000000000000000000000000000200000000000000400000000000000000000000000000000",
            "type": "0x0",
            "transactionHash": "0x3e224a81e208feff31a92af3d1e5e4fa08625b5d6b3174ea4c33d89287075d10",
            "transactionIndex": "0x3",
            "blockHash": "0xbcd979286bc72a0e75bf3c4dd38be07ed82bf25ae5268dd2239dad697dc29b47",
            "blockNumber": "0x124f87a",
            "gasUsed": "0xa33e",
            "effectiveGasPrice": "0x186a0",
            "from": "0xdf300583a9e04b5285f0ba42496aeb70abdcd57f",
            "to": "0xe703b2ab81cb9733d55f489958bc68397172829c",
            "contractAddress": null
        }
    ],
    "libraries": [],
    "pending": [],
    "returns": {},
    "timestamp": 1735248971,
    "chain": 1564830818,
    "commit": "e97f0f9"
}
